{
  "address": "0xB2B6c688Bc8Ae1f732939256903796EB2058bF8e",
  "abi": [
    {
      "inputs": [
        {
          "internalType": "uint256",
          "name": "initialSupply",
          "type": "uint256"
        }
      ],
      "stateMutability": "nonpayable",
      "type": "constructor"
    },
    {
      "anonymous": false,
      "inputs": [
        {
          "indexed": true,
          "internalType": "address",
          "name": "owner",
          "type": "address"
        },
        {
          "indexed": true,
          "internalType": "address",
          "name": "spender",
          "type": "address"
        },
        {
          "indexed": false,
          "internalType": "uint256",
          "name": "value",
          "type": "uint256"
        }
      ],
      "name": "Approval",
      "type": "event"
    },
    {
      "anonymous": false,
      "inputs": [
        {
          "indexed": true,
          "internalType": "address",
          "name": "itemAddress",
          "type": "address"
        }
      ],
      "name": "NewTypeCreated",
      "type": "event"
    },
    {
      "anonymous": false,
      "inputs": [
        {
          "indexed": true,
          "internalType": "address",
          "name": "previousOwner",
          "type": "address"
        },
        {
          "indexed": true,
          "internalType": "address",
          "name": "newOwner",
          "type": "address"
        }
      ],
      "name": "OwnershipTransferred",
      "type": "event"
    },
    {
      "anonymous": false,
      "inputs": [
        {
          "indexed": true,
          "internalType": "address",
          "name": "from",
          "type": "address"
        },
        {
          "indexed": true,
          "internalType": "address",
          "name": "to",
          "type": "address"
        },
        {
          "indexed": false,
          "internalType": "uint256",
          "name": "value",
          "type": "uint256"
        }
      ],
      "name": "Transfer",
      "type": "event"
    },
    {
      "inputs": [
        {
          "internalType": "uint256",
          "name": "",
          "type": "uint256"
        }
      ],
      "name": "_itemContracts",
      "outputs": [
        {
          "internalType": "address",
          "name": "",
          "type": "address"
        }
      ],
      "stateMutability": "view",
      "type": "function"
    },
    {
      "inputs": [],
      "name": "_itemCounter",
      "outputs": [
        {
          "internalType": "uint256",
          "name": "",
          "type": "uint256"
        }
      ],
      "stateMutability": "view",
      "type": "function"
    },
    {
      "inputs": [
        {
          "internalType": "uint256",
          "name": "",
          "type": "uint256"
        }
      ],
      "name": "_itemImages",
      "outputs": [
        {
          "internalType": "string",
          "name": "",
          "type": "string"
        }
      ],
      "stateMutability": "view",
      "type": "function"
    },
    {
      "inputs": [
        {
          "internalType": "uint256",
          "name": "",
          "type": "uint256"
        }
      ],
      "name": "_itemMetadatas",
      "outputs": [
        {
          "internalType": "string",
          "name": "",
          "type": "string"
        }
      ],
      "stateMutability": "view",
      "type": "function"
    },
    {
      "inputs": [
        {
          "internalType": "uint256",
          "name": "",
          "type": "uint256"
        }
      ],
      "name": "_itemPrices",
      "outputs": [
        {
          "internalType": "uint256",
          "name": "",
          "type": "uint256"
        }
      ],
      "stateMutability": "view",
      "type": "function"
    },
    {
      "inputs": [
        {
          "internalType": "uint256",
          "name": "",
          "type": "uint256"
        }
      ],
      "name": "_itemSymbols",
      "outputs": [
        {
          "internalType": "bytes32",
          "name": "",
          "type": "bytes32"
        }
      ],
      "stateMutability": "view",
      "type": "function"
    },
    {
      "inputs": [
        {
          "internalType": "uint256",
          "name": "",
          "type": "uint256"
        }
      ],
      "name": "_itemTypes",
      "outputs": [
        {
          "internalType": "bytes32",
          "name": "",
          "type": "bytes32"
        }
      ],
      "stateMutability": "view",
      "type": "function"
    },
    {
      "inputs": [
        {
          "internalType": "address",
          "name": "owner",
          "type": "address"
        },
        {
          "internalType": "address",
          "name": "spender",
          "type": "address"
        }
      ],
      "name": "allowance",
      "outputs": [
        {
          "internalType": "uint256",
          "name": "",
          "type": "uint256"
        }
      ],
      "stateMutability": "view",
      "type": "function"
    },
    {
      "inputs": [
        {
          "internalType": "address",
          "name": "spender",
          "type": "address"
        },
        {
          "internalType": "uint256",
          "name": "amount",
          "type": "uint256"
        }
      ],
      "name": "approve",
      "outputs": [
        {
          "internalType": "bool",
          "name": "",
          "type": "bool"
        }
      ],
      "stateMutability": "nonpayable",
      "type": "function"
    },
    {
      "inputs": [
        {
          "internalType": "address",
          "name": "account",
          "type": "address"
        }
      ],
      "name": "balanceOf",
      "outputs": [
        {
          "internalType": "uint256",
          "name": "",
          "type": "uint256"
        }
      ],
      "stateMutability": "view",
      "type": "function"
    },
    {
      "inputs": [
        {
          "internalType": "address",
          "name": "_itemOwner",
          "type": "address"
        }
      ],
      "name": "balanceOfEach",
      "outputs": [
        {
          "internalType": "uint256[]",
          "name": "nItems",
          "type": "uint256[]"
        }
      ],
      "stateMutability": "view",
      "type": "function"
    },
    {
      "inputs": [
        {
          "internalType": "address",
          "name": "_itemOwner",
          "type": "address"
        }
      ],
      "name": "balanceOfItem",
      "outputs": [
        {
          "internalType": "uint256",
          "name": "nItems",
          "type": "uint256"
        }
      ],
      "stateMutability": "view",
      "type": "function"
    },
    {
      "inputs": [],
      "name": "beneficiary",
      "outputs": [
        {
          "internalType": "address",
          "name": "",
          "type": "address"
        }
      ],
      "stateMutability": "view",
      "type": "function"
    },
    {
      "inputs": [
        {
          "internalType": "uint256",
          "name": "_itemIndex",
          "type": "uint256"
        }
      ],
      "name": "buyItem",
      "outputs": [
        {
          "internalType": "uint256",
          "name": "",
          "type": "uint256"
        }
      ],
      "stateMutability": "payable",
      "type": "function"
    },
    {
      "inputs": [
        {
          "internalType": "uint256",
          "name": "_itemIndex",
          "type": "uint256"
        },
        {
          "internalType": "uint256",
          "name": "_amount",
          "type": "uint256"
        }
      ],
      "name": "changeERC20toItem",
      "outputs": [
        {
          "internalType": "uint256",
          "name": "",
          "type": "uint256"
        }
      ],
      "stateMutability": "nonpayable",
      "type": "function"
    },
    {
      "inputs": [
        {
          "internalType": "bytes32",
          "name": "_itemName",
          "type": "bytes32"
        },
        {
          "internalType": "bytes32",
          "name": "_itemSymbol",
          "type": "bytes32"
        },
        {
          "internalType": "uint256",
          "name": "_itemPrice",
          "type": "uint256"
        },
        {
          "internalType": "string",
          "name": "_itemMetadata",
          "type": "string"
        },
        {
          "internalType": "string",
          "name": "_itemImage",
          "type": "string"
        }
      ],
      "name": "createType",
      "outputs": [],
      "stateMutability": "nonpayable",
      "type": "function"
    },
    {
      "inputs": [],
      "name": "decimals",
      "outputs": [
        {
          "internalType": "uint8",
          "name": "",
          "type": "uint8"
        }
      ],
      "stateMutability": "view",
      "type": "function"
    },
    {
      "inputs": [
        {
          "internalType": "address",
          "name": "spender",
          "type": "address"
        },
        {
          "internalType": "uint256",
          "name": "subtractedValue",
          "type": "uint256"
        }
      ],
      "name": "decreaseAllowance",
      "outputs": [
        {
          "internalType": "bool",
          "name": "",
          "type": "bool"
        }
      ],
      "stateMutability": "nonpayable",
      "type": "function"
    },
    {
      "inputs": [],
      "name": "forceWithdraw",
      "outputs": [],
      "stateMutability": "nonpayable",
      "type": "function"
    },
    {
      "inputs": [],
      "name": "getShopRevenue",
      "outputs": [
        {
          "internalType": "uint256",
          "name": "",
          "type": "uint256"
        }
      ],
      "stateMutability": "view",
      "type": "function"
    },
    {
      "inputs": [
        {
          "internalType": "uint256",
          "name": "value",
          "type": "uint256"
        }
      ],
      "name": "getSwapEthForTokenPrice",
      "outputs": [
        {
          "internalType": "uint256",
          "name": "",
          "type": "uint256"
        }
      ],
      "stateMutability": "view",
      "type": "function"
    },
    {
      "inputs": [
        {
          "internalType": "uint256",
          "name": "value",
          "type": "uint256"
        }
      ],
      "name": "getSwapTokenForEthPrice",
      "outputs": [
        {
          "internalType": "uint256",
          "name": "",
          "type": "uint256"
        }
      ],
      "stateMutability": "view",
      "type": "function"
    },
    {
      "inputs": [
        {
          "internalType": "uint256",
          "name": "_itemIndex",
          "type": "uint256"
        }
      ],
      "name": "getType",
      "outputs": [
        {
          "internalType": "bytes32",
          "name": "",
          "type": "bytes32"
        },
        {
          "internalType": "bytes32",
          "name": "",
          "type": "bytes32"
        },
        {
          "internalType": "uint256",
          "name": "",
          "type": "uint256"
        },
        {
          "internalType": "address",
          "name": "",
          "type": "address"
        },
        {
          "internalType": "uint256",
          "name": "",
          "type": "uint256"
        },
        {
          "internalType": "uint256",
          "name": "",
          "type": "uint256"
        },
        {
          "internalType": "string",
          "name": "",
          "type": "string"
        }
      ],
      "stateMutability": "view",
      "type": "function"
    },
    {
      "inputs": [],
      "name": "getTypes",
      "outputs": [
        {
          "internalType": "bytes32[]",
          "name": "itemSymbols",
          "type": "bytes32[]"
        },
        {
          "internalType": "bytes32[]",
          "name": "itemTypes",
          "type": "bytes32[]"
        },
        {
          "internalType": "uint256[]",
          "name": "itemPrices",
          "type": "uint256[]"
        },
        {
          "internalType": "address[]",
          "name": "itemContracts",
          "type": "address[]"
        },
        {
          "internalType": "uint256[]",
          "name": "itemTotalSupply",
          "type": "uint256[]"
        },
        {
          "internalType": "uint256[]",
          "name": "itemsOnSale",
          "type": "uint256[]"
        },
        {
          "internalType": "string[]",
          "name": "itemImages",
          "type": "string[]"
        }
      ],
      "stateMutability": "view",
      "type": "function"
    },
    {
      "inputs": [
        {
          "internalType": "address",
          "name": "spender",
          "type": "address"
        },
        {
          "internalType": "uint256",
          "name": "addedValue",
          "type": "uint256"
        }
      ],
      "name": "increaseAllowance",
      "outputs": [
        {
          "internalType": "bool",
          "name": "",
          "type": "bool"
        }
      ],
      "stateMutability": "nonpayable",
      "type": "function"
    },
    {
      "inputs": [
        {
          "internalType": "address",
          "name": "_itemOwner",
          "type": "address"
        }
      ],
      "name": "itemsOf",
      "outputs": [
        {
          "internalType": "uint256[]",
          "name": "itemsOfType",
          "type": "uint256[]"
        },
        {
          "internalType": "uint256[]",
          "name": "ownedItems",
          "type": "uint256[]"
        }
      ],
      "stateMutability": "view",
      "type": "function"
    },
    {
      "inputs": [
        {
          "internalType": "uint256",
          "name": "_itemIndex",
          "type": "uint256"
        },
        {
          "internalType": "uint256",
          "name": "_amount",
          "type": "uint256"
        }
      ],
      "name": "mint",
      "outputs": [],
      "stateMutability": "nonpayable",
      "type": "function"
    },
    {
      "inputs": [],
      "name": "name",
      "outputs": [
        {
          "internalType": "string",
          "name": "",
          "type": "string"
        }
      ],
      "stateMutability": "view",
      "type": "function"
    },
    {
      "inputs": [],
      "name": "owner",
      "outputs": [
        {
          "internalType": "address",
          "name": "",
          "type": "address"
        }
      ],
      "stateMutability": "view",
      "type": "function"
    },
    {
      "inputs": [],
      "name": "renounceOwnership",
      "outputs": [],
      "stateMutability": "nonpayable",
      "type": "function"
    },
    {
      "inputs": [],
      "name": "swapEthForToken",
      "outputs": [
        {
          "internalType": "uint256",
          "name": "",
          "type": "uint256"
        }
      ],
      "stateMutability": "payable",
      "type": "function"
    },
    {
      "inputs": [
        {
          "internalType": "uint256",
          "name": "value",
          "type": "uint256"
        }
      ],
      "name": "swapTokenForEth",
      "outputs": [],
      "stateMutability": "nonpayable",
      "type": "function"
    },
    {
      "inputs": [],
      "name": "symbol",
      "outputs": [
        {
          "internalType": "string",
          "name": "",
          "type": "string"
        }
      ],
      "stateMutability": "view",
      "type": "function"
    },
    {
      "inputs": [],
      "name": "totalSupply",
      "outputs": [
        {
          "internalType": "uint256",
          "name": "",
          "type": "uint256"
        }
      ],
      "stateMutability": "view",
      "type": "function"
    },
    {
      "inputs": [
        {
          "internalType": "address",
          "name": "recipient",
          "type": "address"
        },
        {
          "internalType": "uint256",
          "name": "amount",
          "type": "uint256"
        }
      ],
      "name": "transfer",
      "outputs": [
        {
          "internalType": "bool",
          "name": "",
          "type": "bool"
        }
      ],
      "stateMutability": "nonpayable",
      "type": "function"
    },
    {
      "inputs": [
        {
          "internalType": "address",
          "name": "sender",
          "type": "address"
        },
        {
          "internalType": "address",
          "name": "recipient",
          "type": "address"
        },
        {
          "internalType": "uint256",
          "name": "amount",
          "type": "uint256"
        }
      ],
      "name": "transferFrom",
      "outputs": [
        {
          "internalType": "bool",
          "name": "",
          "type": "bool"
        }
      ],
      "stateMutability": "nonpayable",
      "type": "function"
    },
    {
      "inputs": [
        {
          "internalType": "address",
          "name": "newOwner",
          "type": "address"
        }
      ],
      "name": "transferOwnership",
      "outputs": [],
      "stateMutability": "nonpayable",
      "type": "function"
    },
    {
      "inputs": [],
      "name": "withdraw",
      "outputs": [],
      "stateMutability": "nonpayable",
      "type": "function"
    },
    {
      "stateMutability": "payable",
      "type": "receive"
    }
  ],
  "transactionHash": "0xbc5a9bffa58e38fc73a825048fa80466638254f98c77d974f8ec0a041da085f2",
  "args": [
    "1000000000000000000000000"
  ],
  "solcInputHash": "210b400d15b037f8cfa422c1de9f7817",
  "bytecode": "0x60806040523480156200001157600080fd5b5060405162005bcc38038062005bcc8339810160408190526200003491620002f6565b60405180604001604052806008815260200167536f7a6e616e696560c01b8152506040518060400160405280600381526020016229ad2760e91b8152508160039080519060200190620000899291906200025a565b5080516200009f9060049060208401906200025a565b50506005805460ff19166012179055506000620000bb62000136565b60058054610100600160a81b0319166101006001600160a01b03841690810291909117909155604051919250906000907f8be0079c531659141344cd1fd0a4f28419497f9722a3daafe3b4186f6b6457e0908290a3506200011d33826200013a565b50600d80546001600160a01b0319163317905562000386565b3390565b6001600160a01b0382166200016c5760405162461bcd60e51b8152600401620001639062000346565b60405180910390fd5b6200017a6000838362000226565b62000196816002546200022b60201b6200218d1790919060201c565b6002556001600160a01b03821660009081526020818152604090912054620001c99183906200218d6200022b821b17901c565b6001600160a01b0383166000818152602081905260408082209390935591519091907fddf252ad1be2c89b69c2b068fc378daa952ba7f163c4a11628f55a4df523b3ef906200021a9085906200037d565b60405180910390a35050565b505050565b600082820183811015620002535760405162461bcd60e51b815260040162000163906200030f565b9392505050565b828054600181600116156101000203166002900490600052602060002090601f016020900481019282601f106200029d57805160ff1916838001178555620002cd565b82800160010185558215620002cd579182015b82811115620002cd578251825591602001919060010190620002b0565b50620002db929150620002df565b5090565b5b80821115620002db5760008155600101620002e0565b60006020828403121562000308578081fd5b5051919050565b6020808252601b908201527f536166654d6174683a206164646974696f6e206f766572666c6f770000000000604082015260600190565b6020808252601f908201527f45524332303a206d696e7420746f20746865207a65726f206164647265737300604082015260600190565b90815260200190565b61583680620003966000396000f3fe6080604052600436106200025f5760003560e01c8063715018a6116200013f578063ae86041d11620000bb578063c72514aa1162000079578063c72514aa146200074d578063d87bcae21462000772578063dd62ed3e1462000797578063e7fb74c714620007bc578063f2fde38b14620007d3576200029d565b8063ae86041d146200068c578063b00f8ea514620006b1578063b4579d6014620006d6578063b46c84341462000703578063b58ce7171462000728576200029d565b806395d89b41116200010957806395d89b4114620005ed5780639ffc03b11462000605578063a457c2d7146200061d578063a51edecb1462000642578063a9059cbb1462000667576200029d565b8063715018a614620005705780637231a87614620005885780637be80b3914620005bd5780638da5cb5b14620005d5576200029d565b8063313ce56711620001db578063471de5521162000199578063471de55214620004a8578063523298de14620004cd57806362f5d6b61462000501578063685b7828146200052657806370a08231146200054b576200029d565b8063313ce56714620003e357806338af3eed146200040a5780633950935114620004315780633ccfd60b14620004565780634036ab78146200046e576200029d565b806318160ddd116200022957806318160ddd14620003525780631917a07a146200036a5780631b2ef1ca146200038f57806323b872dd14620003b45780633050673214620003d9576200029d565b80630595f16214620002a257806306fdde0314620002c7578063095ea7b314620002f75780630f432b43146200032b576200029d565b366200029d57600d546001600160a01b031633146200029b5760405162461bcd60e51b8152600401620002929062002e66565b60405180910390fd5b005b600080fd5b348015620002af57600080fd5b506200029b620002c1366004620028ac565b620007f8565b348015620002d457600080fd5b50620002df620009af565b604051620002ee919062002cef565b60405180910390f35b3480156200030457600080fd5b506200031c62000316366004620027e1565b62000a49565b604051620002ee919062002c96565b3480156200033857600080fd5b506200034362000a6b565b604051620002ee919062002a75565b3480156200035f57600080fd5b506200034362000a71565b3480156200037757600080fd5b50620003436200038936600462002930565b62000a77565b3480156200039c57600080fd5b506200029b620003ae36600462002962565b62000aa3565b348015620003c157600080fd5b506200031c620003d33660046200279c565b62000baf565b6200034362000c41565b348015620003f057600080fd5b50620003fb62000c7d565b604051620002ee919062003168565b3480156200041757600080fd5b506200042262000c86565b604051620002ee919062002a81565b3480156200043e57600080fd5b506200031c62000450366004620027e1565b62000c95565b3480156200046357600080fd5b506200029b62000cea565b3480156200047b57600080fd5b50620004936200048d36600462002930565b62000daf565b604051620002ee979695949392919062002ca1565b348015620004b557600080fd5b5062000343620004c736600462002930565b62000fb5565b348015620004da57600080fd5b50620004f2620004ec36600462002745565b62000fc7565b604051620002ee919062002c4f565b3480156200050e57600080fd5b50620003436200052036600462002962565b620010d8565b3480156200053357600080fd5b50620002df6200054536600462002930565b62001200565b3480156200055857600080fd5b50620003436200056a36600462002745565b6200129f565b3480156200057d57600080fd5b506200029b620012ba565b3480156200059557600080fd5b50620005ad620005a736600462002745565b62001350565b604051620002ee92919062002c64565b348015620005ca57600080fd5b506200029b620015a3565b348015620005e257600080fd5b50620004226200165b565b348015620005fa57600080fd5b50620002df6200166f565b3480156200061257600080fd5b5062000343620016d3565b3480156200062a57600080fd5b506200031c6200063c366004620027e1565b620016d9565b3480156200064f57600080fd5b50620003436200066136600462002930565b62001749565b3480156200067457600080fd5b506200031c62000686366004620027e1565b62001766565b3480156200069957600080fd5b506200029b620006ab36600462002930565b6200177e565b348015620006be57600080fd5b5062000343620006d036600462002745565b6200185d565b348015620006e357600080fd5b50620006ee6200190c565b604051620002ee979695949392919062002b7e565b3480156200071057600080fd5b50620002df6200072236600462002930565b62001def565b3480156200073557600080fd5b50620003436200074736600462002930565b62001e5a565b3480156200075a57600080fd5b50620003436200076c36600462002930565b62001e6c565b3480156200077f57600080fd5b50620004226200079136600462002930565b62001e7e565b348015620007a457600080fd5b5062000343620007b636600462002763565b62001e99565b62000343620007cd36600462002930565b62001ec4565b348015620007e057600080fd5b506200029b620007f236600462002745565b620020b7565b62000802620021b5565b6001600160a01b0316620008156200165b565b6001600160a01b0316146200083e5760405162461bcd60e51b815260040162000292906200300b565b60008560405160200162000853919062002a75565b6040516020818303038152906040528560405160200162000875919062002a75565b604051602081830303815290604052604051620008929062002616565b6200089f92919062002d04565b604051809103906000f080158015620008bc573d6000803e3d6000fd5b50600c8054600090815260066020908152604080832080546001600160a01b0319166001600160a01b03871617905583548352600782528083208b9055835483526009825280832089905583548352600882528083208a905592548252600a815291902085519293506200093592909186019062002624565b50600c546000908152600b6020908152604090912083516200095a9285019062002624565b50600c8054600101908190556000908152600660205260408082205490516001600160a01b03909116917f2b4d92f463e237fda874ac33e17432932f4e012d4d45b91af877361fc871840991a2505050505050565b60038054604080516020601f600260001961010060018816150201909516949094049384018190048102820181019092528281526060939092909183018282801562000a3f5780601f1062000a135761010080835404028352916020019162000a3f565b820191906000526020600020905b81548152906001019060200180831162000a2157829003601f168201915b5050505050905090565b600062000a6162000a59620021b5565b8484620021b9565b5060015b92915050565b600c5481565b60025490565b60008062000a9c4762000a9562000a8d62000a71565b869062002275565b90620022b5565b9392505050565b62000aad620021b5565b6001600160a01b031662000ac06200165b565b6001600160a01b03161462000ae95760405162461bcd60e51b815260040162000292906200300b565b6000828152600660205260408120546001600160a01b0316905b8281101562000ba9576000848152600b602052604090819020905163110bcd4560e01b81526001600160a01b0384169163110bcd459162000b4991309160040162002ab9565b602060405180830381600087803b15801562000b6457600080fd5b505af115801562000b79573d6000803e3d6000fd5b505050506040513d601f19601f8201168201806040525081019062000b9f919062002949565b5060010162000b03565b50505050565b600062000bbe848484620022eb565b62000c378462000bcd620021b5565b62000c3185604051806060016040528060288152602001620057b4602891396001600160a01b038a1660009081526001602052604081209062000c0f620021b5565b6001600160a01b0316815260208101919091526040016000205491906200240f565b620021b9565b5060019392505050565b60008062000c6a62000c5447346200243e565b62000a9562000c6262000a71565b349062002275565b905062000c78338262002469565b905090565b60055460ff1690565b600d546001600160a01b031681565b600062000a6162000ca5620021b5565b8462000c31856001600062000cb9620021b5565b6001600160a01b03908116825260208083019390935260409182016000908120918c1681529252902054906200218d565b600d546001600160a01b0316331462000d175760405162461bcd60e51b8152600401620002929062002f1e565b600e8054600091829055600d546040519192916001600160a01b0390911690839062000d439062002a7e565b60006040518083038185875af1925050503d806000811462000d82576040519150601f19603f3d011682016040523d82523d6000602084013e62000d87565b606091505b505090508062000dab5760405162461bcd60e51b8152600401620002929062002f69565b5050565b60008181526008602090815260408083205460078352818420546009845282852054600685528386205484516318160ddd60e01b81529451879687968796879687966060969295919490936001600160a01b039093169283926318160ddd92600480840193919291829003018186803b15801562000e2c57600080fd5b505afa15801562000e41573d6000803e3d6000fd5b505050506040513d601f19601f8201168201806040525081019062000e67919062002949565b60008d815260066020526040908190205490516370a0823160e01b81526001600160a01b03909116906370a082319062000ea690309060040162002a81565b60206040518083038186803b15801562000ebf57600080fd5b505afa15801562000ed4573d6000803e3d6000fd5b505050506040513d601f19601f8201168201806040525081019062000efa919062002949565b60008e8152600b602090815260409182902080548351601f6002600019610100600186161502019093169290920491820184900484028101840190945280845290929183919083018282801562000f955780601f1062000f695761010080835404028352916020019162000f95565b820191906000526020600020905b81548152906001019060200180831162000f7757829003601f168201915b505050505090509650965096509650965096509650919395979092949650565b60076020526000908152604090205481565b6060600c546001600160401b038111801562000fe257600080fd5b506040519080825280602002602001820160405280156200100d578160200160208202803683370190505b50905060005b600c54811015620010d257600081815260066020526040908190205490516370a0823160e01b81526001600160a01b03909116906370a08231906200105d90869060040162002a81565b60206040518083038186803b1580156200107657600080fd5b505afa1580156200108b573d6000803e3d6000fd5b505050506040513d601f19601f82011682018060405250810190620010b1919062002949565b828281518110620010be57fe5b602090810291909101015260010162001013565b50919050565b600082815260096020526040812054620010f3908362002275565b620010fe336200129f565b10156200111f5760405162461bcd60e51b8152600401620002929062003040565b6000838152600960205260409020546200114790339062001141908562002275565b62002534565b6000838152600660205260408120546001600160a01b0316905b83811015620011f85760405163110bcd4560e01b81526001600160a01b0383169063110bcd45906200119890339060040162002b5b565b602060405180830381600087803b158015620011b357600080fd5b505af1158015620011c8573d6000803e3d6000fd5b505050506040513d601f19601f82011682018060405250810190620011ee919062002949565b5060010162001161565b505092915050565b600a6020908152600091825260409182902080548351601f600260001961010060018616150201909316929092049182018490048402810184019094528084529091830182828015620012975780601f106200126b5761010080835404028352916020019162001297565b820191906000526020600020905b8154815290600101906020018083116200127957829003601f168201915b505050505081565b6001600160a01b031660009081526020819052604090205490565b620012c4620021b5565b6001600160a01b0316620012d76200165b565b6001600160a01b031614620013005760405162461bcd60e51b815260040162000292906200300b565b60055460405160009161010090046001600160a01b0316907f8be0079c531659141344cd1fd0a4f28419497f9722a3daafe3b4186f6b6457e0908390a360058054610100600160a81b0319169055565b606080600c546001600160401b03811180156200136c57600080fd5b5060405190808252806020026020018201604052801562001397578160200160208202803683370190505b5091506000620013a7846200185d565b9050806001600160401b0381118015620013c057600080fd5b50604051908082528060200260200182016040528015620013eb578160200160208202803683370190505b5091506000805b600c548110156200159b57600081815260066020526040908190205490516370a0823160e01b81526001600160a01b039091169081906370a08231906200143e908a9060040162002a81565b60206040518083038186803b1580156200145757600080fd5b505afa1580156200146c573d6000803e3d6000fd5b505050506040513d601f19601f8201168201806040525081019062001492919062002949565b8683815181106200149f57fe5b6020908102919091010152604051633918d43b60e11b81526060906001600160a01b03831690637231a87690620014db908b9060040162002a81565b60006040518083038186803b158015620014f457600080fd5b505afa15801562001509573d6000803e3d6000fd5b505050506040513d6000823e601f3d908101601f191682016040526200153391908101906200280e565b905060005b8784815181106200154557fe5b60200260200101518110156200158f578181815181106200156257fe5b60200260200101518786815181106200157757fe5b60209081029190910101526001948501940162001538565b505050600101620013f2565b505050915091565b600d546001600160a01b03163314620015d05760405162461bcd60e51b8152600401620002929062002f1e565b600d546040516000916001600160a01b0316904790620015f09062002a7e565b60006040518083038185875af1925050503d80600081146200162f576040519150601f19603f3d011682016040523d82523d6000602084013e62001634565b606091505b5050905080620016585760405162461bcd60e51b8152600401620002929062002f69565b50565b60055461010090046001600160a01b031690565b60048054604080516020601f600260001961010060018816150201909516949094049384018190048102820181019092528281526060939092909183018282801562000a3f5780601f1062000a135761010080835404028352916020019162000a3f565b600e5490565b600062000a61620016e9620021b5565b8462000c3185604051806060016040528060258152602001620057dc602591396001600062001717620021b5565b6001600160a01b03908116825260208083019390935260409182016000908120918d168152925290205491906200240f565b60008062000a9c6200175a62000a71565b62000a95854762002275565b600062000a6162001776620021b5565b8484620022eb565b806200178a336200129f565b1015620017ab5760405162461bcd60e51b8152600401620002929062003040565b6000620017c7620017bb62000a71565b62000a95844762002275565b9050620017d5338362002534565b6000336001600160a01b031682604051620017f09062002a7e565b60006040518083038185875af1925050503d80600081146200182f576040519150601f19603f3d011682016040523d82523d6000602084013e62001834565b606091505b5050905080620018585760405162461bcd60e51b8152600401620002929062002f69565b505050565b6000805b600c54811015620010d257600081815260066020526040908190205490516370a0823160e01b81526001600160a01b03909116906370a0823190620018ab90869060040162002a81565b60206040518083038186803b158015620018c457600080fd5b505afa158015620018d9573d6000803e3d6000fd5b505050506040513d601f19601f82011682018060405250810190620018ff919062002949565b9091019060010162001861565b6060806060806060806060600c546001600160401b03811180156200193057600080fd5b506040519080825280602002602001820160405280156200195b578160200160208202803683370190505b509650600c546001600160401b03811180156200197757600080fd5b50604051908082528060200260200182016040528015620019a2578160200160208202803683370190505b509550600c546001600160401b0381118015620019be57600080fd5b50604051908082528060200260200182016040528015620019e9578160200160208202803683370190505b509450600c546001600160401b038111801562001a0557600080fd5b5060405190808252806020026020018201604052801562001a30578160200160208202803683370190505b509350600c546001600160401b038111801562001a4c57600080fd5b5060405190808252806020026020018201604052801562001a77578160200160208202803683370190505b509250600c546001600160401b038111801562001a9357600080fd5b5060405190808252806020026020018201604052801562001abe578160200160208202803683370190505b509150600c546001600160401b038111801562001ada57600080fd5b5060405190808252806020026020018201604052801562001b1057816020015b606081526020019060019003908162001afa5790505b50905060005b600c5481101562001de55760008181526006602090815260408083205460089092529091205489516001600160a01b03909216918a908490811062001b5757fe5b602002602001018181525050600760008381526020019081526020016000205488838151811062001b8457fe5b602002602001018181525050600960008381526020019081526020016000205487838151811062001bb157fe5b60209081029190910181019190915260008381526006909152604090205486516001600160a01b039091169087908490811062001bea57fe5b6001600160a01b03929092166020928302919091018201526000838152600b82526040908190208054825160026001831615610100026000190190921691909104601f81018590048502820185019093528281529290919083018282801562001c975780601f1062001c6b5761010080835404028352916020019162001c97565b820191906000526020600020905b81548152906001019060200180831162001c7957829003601f168201915b505050505083838151811062001ca957fe5b6020026020010181905250806001600160a01b03166318160ddd6040518163ffffffff1660e01b815260040160206040518083038186803b15801562001cee57600080fd5b505afa15801562001d03573d6000803e3d6000fd5b505050506040513d601f19601f8201168201806040525081019062001d29919062002949565b85838151811062001d3657fe5b60209081029190910101526040516370a0823160e01b81526001600160a01b038216906370a082319062001d6f90309060040162002a81565b60206040518083038186803b15801562001d8857600080fd5b505afa15801562001d9d573d6000803e3d6000fd5b505050506040513d601f19601f8201168201806040525081019062001dc3919062002949565b84838151811062001dd057fe5b60209081029190910101525060010162001b16565b5090919293949596565b600b6020908152600091825260409182902080548351601f600260001961010060018616150201909316929092049182018490048402810184019094528084529091830182828015620012975780601f106200126b5761010080835404028352916020019162001297565b60086020526000908152604090205481565b60096020526000908152604090205481565b6006602052600090815260409020546001600160a01b031681565b6001600160a01b03918216600090815260016020908152604080832093909416825291909152205490565b600081815260096020526040812054341462001ef45760405162461bcd60e51b8152600401620002929062002fe1565b600e8054340190556000828152600660205260408082205490516370a0823160e01b81526001600160a01b03909116919082906370a082319062001f3d90309060040162002a81565b60206040518083038186803b15801562001f5657600080fd5b505afa15801562001f6b573d6000803e3d6000fd5b505050506040513d601f19601f8201168201806040525081019062001f91919062002949565b1162001fb15760405162461bcd60e51b8152600401620002929062002ee7565b806001600160a01b03166323b872dd3033846001600160a01b0316637231a876306040518263ffffffff1660e01b815260040162001ff0919062002a81565b60006040518083038186803b1580156200200957600080fd5b505afa1580156200201e573d6000803e3d6000fd5b505050506040513d6000823e601f3d908101601f191682016040526200204891908101906200280e565b6000815181106200205557fe5b60200260200101516040518463ffffffff1660e01b81526004016200207d9392919062002a95565b600060405180830381600087803b1580156200209857600080fd5b505af1158015620020ad573d6000803e3d6000fd5b5050505050919050565b620020c1620021b5565b6001600160a01b0316620020d46200165b565b6001600160a01b031614620020fd5760405162461bcd60e51b815260040162000292906200300b565b6001600160a01b038116620021265760405162461bcd60e51b8152600401620002929062002d70565b6005546040516001600160a01b0380841692610100900416907f8be0079c531659141344cd1fd0a4f28419497f9722a3daafe3b4186f6b6457e090600090a3600580546001600160a01b0390921661010002610100600160a81b0319909216919091179055565b60008282018381101562000a9c5760405162461bcd60e51b8152600401620002929062002df8565b3390565b6001600160a01b038316620021e25760405162461bcd60e51b81526004016200029290620030ed565b6001600160a01b0382166200220b5760405162461bcd60e51b8152600401620002929062002db6565b6001600160a01b0380841660008181526001602090815260408083209487168084529490915290819020849055517f8c5be1e5ebec7d5bd14f71427d1e84f3dd0314c0f7b2291e5b200ac8c7c3b925906200226890859062002a75565b60405180910390a3505050565b600082620022865750600062000a65565b828202828482816200229457fe5b041462000a9c5760405162461bcd60e51b8152600401620002929062002fa0565b6000808211620022d95760405162461bcd60e51b8152600401620002929062002eb0565b818381620022e357fe5b049392505050565b6001600160a01b038316620023145760405162461bcd60e51b81526004016200029290620030a8565b6001600160a01b0382166200233d5760405162461bcd60e51b8152600401620002929062002d2d565b6200234a83838362001858565b6200238a816040518060600160405280602681526020016200578e602691396001600160a01b03861660009081526020819052604090205491906200240f565b6001600160a01b038085166000908152602081905260408082209390935590841681522054620023bb90826200218d565b6001600160a01b0380841660008181526020819052604090819020939093559151908516907fddf252ad1be2c89b69c2b068fc378daa952ba7f163c4a11628f55a4df523b3ef906200226890859062002a75565b60008184841115620024365760405162461bcd60e51b815260040162000292919062002cef565b505050900390565b600082821115620024635760405162461bcd60e51b8152600401620002929062002e2f565b50900390565b6001600160a01b038216620024925760405162461bcd60e51b8152600401620002929062003131565b620024a06000838362001858565b600254620024af90826200218d565b6002556001600160a01b038216600090815260208190526040902054620024d790826200218d565b6001600160a01b0383166000818152602081905260408082209390935591519091907fddf252ad1be2c89b69c2b068fc378daa952ba7f163c4a11628f55a4df523b3ef906200252890859062002a75565b60405180910390a35050565b6001600160a01b0382166200255d5760405162461bcd60e51b8152600401620002929062003067565b6200256b8260008362001858565b620025ab816040518060600160405280602281526020016200576c602291396001600160a01b03851660009081526020819052604090205491906200240f565b6001600160a01b038316600090815260208190526040902055600254620025d390826200243e565b6002556040516000906001600160a01b038416907fddf252ad1be2c89b69c2b068fc378daa952ba7f163c4a11628f55a4df523b3ef906200252890859062002a75565b61258c80620031e083390190565b828054600181600116156101000203166002900490600052602060002090601f016020900481019282601f106200266757805160ff191683800117855562002697565b8280016001018555821562002697579182015b82811115620026975782518255916020019190600101906200267a565b50620026a5929150620026a9565b5090565b5b80821115620026a55760008155600101620026aa565b80356001600160a01b038116811462000a6557600080fd5b600082601f830112620026e9578081fd5b81356001600160401b03811115620026ff578182fd5b62002714601f8201601f191660200162003176565b91508082528360208285010111156200272c57600080fd5b8060208401602084013760009082016020015292915050565b60006020828403121562002757578081fd5b62000a9c8383620026c0565b6000806040838503121562002776578081fd5b620027828484620026c0565b9150620027938460208501620026c0565b90509250929050565b600080600060608486031215620027b1578081fd5b8335620027be81620031c9565b92506020840135620027d081620031c9565b929592945050506040919091013590565b60008060408385031215620027f4578182fd5b620028008484620026c0565b946020939093013593505050565b6000602080838503121562002821578182fd5b82516001600160401b0381111562002837578283fd5b8301601f8101851362002848578283fd5b80516200285f62002859826200319d565b62003176565b81815283810190838501858402850186018910156200287c578687fd5b8694505b83851015620028a057805183526001949094019391850191850162002880565b50979650505050505050565b600080600080600060a08688031215620028c4578081fd5b85359450602086013593506040860135925060608601356001600160401b0380821115620028f0578283fd5b620028fe89838a01620026d8565b9350608088013591508082111562002914578283fd5b506200292388828901620026d8565b9150509295509295909350565b60006020828403121562002942578081fd5b5035919050565b6000602082840312156200295b578081fd5b5051919050565b6000806040838503121562002975578182fd5b50508035926020909101359150565b6001600160a01b03169052565b6000815180845260208085019450808401835b83811015620029c257815187529582019590820190600101620029a4565b509495945050505050565b60008282518085526020808601955080818302840101818601855b8481101562002a1a57601f1986840301895262002a0783835162002a27565b98840198925090830190600101620029e8565b5090979650505050505050565b60008151808452815b8181101562002a4e5760208185018101518683018201520162002a30565b8181111562002a605782602083870101525b50601f01601f19169290920160200192915050565b90815260200190565b90565b6001600160a01b0391909116815260200190565b6001600160a01b039384168152919092166020820152604081019190915260600190565b60006040820160018060a01b0385168352602060408185015282855460018082166000811462002af2576001811462002b115762002b4d565b60028304607f16865260ff198316606089015260808801935062002b4d565b6002830480875262002b238a620031bd565b885b8281101562002b435781548b82016060015290840190870162002b25565b8a01606001955050505b509198975050505050505050565b6001600160a01b0391909116815260406020820181905260009082015260600190565b600060e0825262002b9360e083018a62002991565b60208382038185015262002ba8828b62002991565b9150838203604085015262002bbe828a62002991565b84810360608601528851808252828a01935090820190845b8181101562002bfd5762002bec83865162002984565b938301939183019160010162002bd6565b5050848103608086015262002c13818962002991565b9250505082810360a084015262002c2b818662002991565b905082810360c084015262002c418185620029cd565b9a9950505050505050505050565b60006020825262000a9c602083018462002991565b60006040825262002c79604083018562002991565b828103602084015262002c8d818562002991565b95945050505050565b901515815260200190565b600088825287602083015286604083015260018060a01b03861660608301528460808301528360a083015260e060c083015262002ce260e083018462002a27565b9998505050505050505050565b60006020825262000a9c602083018462002a27565b60006040825262002d19604083018562002a27565b828103602084015262002c8d818562002a27565b60208082526023908201527f45524332303a207472616e7366657220746f20746865207a65726f206164647260408201526265737360e81b606082015260800190565b60208082526026908201527f4f776e61626c653a206e6577206f776e657220697320746865207a65726f206160408201526564647265737360d01b606082015260800190565b60208082526022908201527f45524332303a20617070726f766520746f20746865207a65726f206164647265604082015261737360f01b606082015260800190565b6020808252601b908201527f536166654d6174683a206164646974696f6e206f766572666c6f770000000000604082015260600190565b6020808252601e908201527f536166654d6174683a207375627472616374696f6e206f766572666c6f770000604082015260600190565b6020808252602a908201527f4974656d52656769737472793a204f6e6c7920616c6c6f77656420666f722062604082015269656e656669636961727960b01b606082015260800190565b6020808252601a908201527f536166654d6174683a206469766973696f6e206279207a65726f000000000000604082015260600190565b6020808252601a908201527f4974656d52656769737472793a204f7574206f662073746f636b000000000000604082015260600190565b6020808252602b908201527f4974656d52656769737472793a2063616c6c6572206973206e6f74207468652060408201526a62656e656669636961727960a81b606082015260800190565b6020808252601f908201527f4974656d52656769737472793a207769746864726177616c206661696c656400604082015260600190565b60208082526021908201527f536166654d6174683a206d756c7469706c69636174696f6e206f766572666c6f6040820152607760f81b606082015260800190565b60208082526010908201526f15dc9bdb99c81c1c9a58d9481c185a5960821b604082015260600190565b6020808252818101527f4f776e61626c653a2063616c6c6572206973206e6f7420746865206f776e6572604082015260600190565b6020808252600d908201526c57726f6e672062616c616e636560981b604082015260600190565b60208082526021908201527f45524332303a206275726e2066726f6d20746865207a65726f206164647265736040820152607360f81b606082015260800190565b60208082526025908201527f45524332303a207472616e736665722066726f6d20746865207a65726f206164604082015264647265737360d81b606082015260800190565b60208082526024908201527f45524332303a20617070726f76652066726f6d20746865207a65726f206164646040820152637265737360e01b606082015260800190565b6020808252601f908201527f45524332303a206d696e7420746f20746865207a65726f206164647265737300604082015260600190565b60ff91909116815260200190565b6040518181016001600160401b03811182821017156200319557600080fd5b604052919050565b60006001600160401b03821115620031b3578081fd5b5060209081020190565b60009081526020902090565b6001600160a01b03811681146200165857600080fdfe60806040523480156200001157600080fd5b506040516200258c3803806200258c833981810160405260408110156200003757600080fd5b81019080805160405193929190846401000000008211156200005857600080fd5b9083019060208201858111156200006e57600080fd5b82516401000000008111828201881017156200008957600080fd5b82525081516020918201929091019080838360005b83811015620000b85781810151838201526020016200009e565b50505050905090810190601f168015620000e65780820380516001836020036101000a031916815260200191505b50604052602001805160405193929190846401000000008211156200010a57600080fd5b9083019060208201858111156200012057600080fd5b82516401000000008111828201881017156200013b57600080fd5b82525081516020918201929091019080838360005b838110156200016a57818101518382015260200162000150565b50505050905090810190601f168015620001985780820380516001836020036101000a031916815260200191505b5060405250839150829050620001b56301ffc9a760e01b620002c3565b8151620001ca9060069060208501906200034c565b508051620001e09060079060208401906200034c565b50620001f36380ac58cd60e01b620002c3565b62000205635b5e139f60e01b620002c3565b6200021763780e9d6360e01b620002c3565b50600090506200022662000348565b600a80546001600160a01b0319166001600160a01b038316908117909155604051919250906000907f8be0079c531659141344cd1fd0a4f28419497f9722a3daafe3b4186f6b6457e0908290a3506040805180820190915260158082527f68747470733a2f2f697066732e696f2f697066732f00000000000000000000006020909201918252620002ba91600d916200034c565b505050620003e8565b6001600160e01b0319808216141562000323576040805162461bcd60e51b815260206004820152601c60248201527f4552433136353a20696e76616c696420696e7465726661636520696400000000604482015290519081900360640190fd5b6001600160e01b0319166000908152602081905260409020805460ff19166001179055565b3390565b828054600181600116156101000203166002900490600052602060002090601f016020900481019282601f106200038f57805160ff1916838001178555620003bf565b82800160010185558215620003bf579182015b82811115620003bf578251825591602001919060010190620003a2565b50620003cd929150620003d1565b5090565b5b80821115620003cd5760008155600101620003d2565b61219480620003f86000396000f3fe608060405234801561001057600080fd5b50600436106101425760003560e01c80636c0360eb116100b857806395d89b411161007c57806395d89b41146104bc578063a22cb465146104c4578063b88d4fde146104f2578063c87b56dd146105b8578063e985e9c5146105d5578063f2fde38b1461060357610142565b80636c0360eb1461040857806370a0823114610410578063715018a6146104365780637231a8761461043e5780638da5cb5b146104b457610142565b806318160ddd1161010a57806318160ddd1461032e57806323b872dd146103365780632f745c591461036c57806342842e0e146103985780634f6ccce7146103ce5780636352211e146103eb57610142565b806301ffc9a71461014757806306fdde0314610182578063081812fc146101ff578063095ea7b314610238578063110bcd4514610266575b600080fd5b61016e6004803603602081101561015d57600080fd5b50356001600160e01b031916610629565b604080519115158252519081900360200190f35b61018a61064c565b6040805160208082528351818301528351919283929083019185019080838360005b838110156101c45781810151838201526020016101ac565b50505050905090810190601f1680156101f15780820380516001836020036101000a031916815260200191505b509250505060405180910390f35b61021c6004803603602081101561021557600080fd5b50356106e2565b604080516001600160a01b039092168252519081900360200190f35b6102646004803603604081101561024e57600080fd5b506001600160a01b038135169060200135610744565b005b61031c6004803603604081101561027c57600080fd5b6001600160a01b0382351691908101906040810160208201356401000000008111156102a757600080fd5b8201836020820111156102b957600080fd5b803590602001918460018302840111640100000000831117156102db57600080fd5b91908080601f01602080910402602001604051908101604052809392919081815260200183838082843760009201919091525092955061081f945050505050565b60408051918252519081900360200190f35b61031c6108ca565b6102646004803603606081101561034c57600080fd5b506001600160a01b038135811691602081013590911690604001356108db565b61031c6004803603604081101561038257600080fd5b506001600160a01b0381351690602001356108e6565b610264600480360360608110156103ae57600080fd5b506001600160a01b03813581169160208101359091169060400135610908565b61031c600480360360208110156103e457600080fd5b5035610923565b61021c6004803603602081101561040157600080fd5b5035610939565b61018a610961565b61031c6004803603602081101561042657600080fd5b50356001600160a01b03166109c2565b610264610a2a565b6104646004803603602081101561045457600080fd5b50356001600160a01b0316610ae8565b60408051602080825283518183015283519192839290830191858101910280838360005b838110156104a0578181015183820152602001610488565b505050509050019250505060405180910390f35b61021c610b76565b61018a610b85565b610264600480360360408110156104da57600080fd5b506001600160a01b0381351690602001351515610be6565b6102646004803603608081101561050857600080fd5b6001600160a01b0382358116926020810135909116916040820135919081019060808101606082013564010000000081111561054357600080fd5b82018360208201111561055557600080fd5b8035906020019184600183028401116401000000008311171561057757600080fd5b91908080601f016020809104026020016040519081016040528093929190818152602001838380828437600092019190915250929550610ceb945050505050565b61018a600480360360208110156105ce57600080fd5b5035610d49565b61016e600480360360408110156105eb57600080fd5b506001600160a01b0381358116916020013516610fcc565b6102646004803603602081101561061957600080fd5b50356001600160a01b0316610ffa565b6001600160e01b0319811660009081526020819052604090205460ff165b919050565b60068054604080516020601f60026000196101006001881615020190951694909404938401819004810282018101909252828152606093909290918301828280156106d85780601f106106ad576101008083540402835291602001916106d8565b820191906000526020600020905b8154815290600101906020018083116106bb57829003601f168201915b5050505050905090565b60006106ed8261110f565b6107285760405162461bcd60e51b815260040180806020018281038252602c81526020018061205d602c913960400191505060405180910390fd5b506000908152600460205260409020546001600160a01b031690565b600061074f82610939565b9050806001600160a01b0316836001600160a01b031614156107a25760405162461bcd60e51b815260040180806020018281038252602181526020018061210d6021913960400191505060405180910390fd5b806001600160a01b03166107b461111c565b6001600160a01b031614806107d557506107d5816107d061111c565b610fcc565b6108105760405162461bcd60e51b8152600401808060200182810382526038815260200180611fb06038913960400191505060405180910390fd5b61081a8383611120565b505050565b600061082961111c565b6001600160a01b031661083a610b76565b6001600160a01b031614610895576040805162461bcd60e51b815260206004820181905260248201527f4f776e61626c653a2063616c6c6572206973206e6f7420746865206f776e6572604482015290519081900360640190fd5b61089f600b61118e565b60006108ab600b611197565b90506108b7848261119b565b6108c181846112c9565b90505b92915050565b60006108d6600261132c565b905090565b61081a838383611337565b6001600160a01b03821660009081526001602052604081206108c1908361138e565b61081a83838360405180602001604052806000815250610ceb565b60008061093160028461139a565b509392505050565b60006108c48260405180606001604052806029815260200161201260299139600291906113b6565b60098054604080516020601f60026000196101006001881615020190951694909404938401819004810282018101909252828152606093909290918301828280156106d85780601f106106ad576101008083540402835291602001916106d8565b60006001600160a01b038216610a095760405162461bcd60e51b815260040180806020018281038252602a815260200180611fe8602a913960400191505060405180910390fd5b6001600160a01b03821660009081526001602052604090206108c49061132c565b610a3261111c565b6001600160a01b0316610a43610b76565b6001600160a01b031614610a9e576040805162461bcd60e51b815260206004820181905260248201527f4f776e61626c653a2063616c6c6572206973206e6f7420746865206f776e6572604482015290519081900360640190fd5b600a546040516000916001600160a01b0316907f8be0079c531659141344cd1fd0a4f28419497f9722a3daafe3b4186f6b6457e0908390a3600a80546001600160a01b0319169055565b60606000610af5836109c2565b90508067ffffffffffffffff81118015610b0e57600080fd5b50604051908082528060200260200182016040528015610b38578160200160208202803683370190505b50915060005b81811015610b6f57610b5084826108e6565b838281518110610b5c57fe5b6020908102919091010152600101610b3e565b5050919050565b600a546001600160a01b031690565b60078054604080516020601f60026000196101006001881615020190951694909404938401819004810282018101909252828152606093909290918301828280156106d85780601f106106ad576101008083540402835291602001916106d8565b610bee61111c565b6001600160a01b0316826001600160a01b03161415610c54576040805162461bcd60e51b815260206004820152601960248201527f4552433732313a20617070726f766520746f2063616c6c657200000000000000604482015290519081900360640190fd5b8060056000610c6161111c565b6001600160a01b03908116825260208083019390935260409182016000908120918716808252919093529120805460ff191692151592909217909155610ca561111c565b6001600160a01b03167f17307eab39ab6107e8899845ad3d59bd9653f200f220920489ca2b5937696c318360405180821515815260200191505060405180910390a35050565b610cfc610cf661111c565b836113cd565b610d375760405162461bcd60e51b815260040180806020018281038252603181526020018061212e6031913960400191505060405180910390fd5b610d4384848484611471565b50505050565b6060610d548261110f565b610d8f5760405162461bcd60e51b815260040180806020018281038252602f8152602001806120de602f913960400191505060405180910390fd5b6000828152600c602090815260409182902080548351601f6002600019610100600186161502019093169290920491820184900484028101840190945280845260609392830182828015610e245780601f10610df957610100808354040283529160200191610e24565b820191906000526020600020905b815481529060010190602001808311610e0757829003601f168201915b505050505090506060610e356114c3565b9050805160001415610e4957509050610647565b815115610f0a5780826040516020018083805190602001908083835b60208310610e845780518252601f199092019160209182019101610e65565b51815160209384036101000a600019018019909216911617905285519190930192850191508083835b60208310610ecc5780518252601f199092019160209182019101610ead565b6001836020036101000a0380198251168184511680821785525050505050509050019250505060405160208183030381529060405292505050610647565b80610f1485611524565b6040516020018083805190602001908083835b60208310610f465780518252601f199092019160209182019101610f27565b51815160209384036101000a600019018019909216911617905285519190930192850191508083835b60208310610f8e5780518252601f199092019160209182019101610f6f565b6001836020036101000a0380198251168184511680821785525050505050509050019250505060405160208183030381529060405292505050919050565b6001600160a01b03918216600090815260056020908152604080832093909416825291909152205460ff1690565b61100261111c565b6001600160a01b0316611013610b76565b6001600160a01b03161461106e576040805162461bcd60e51b815260206004820181905260248201527f4f776e61626c653a2063616c6c6572206973206e6f7420746865206f776e6572604482015290519081900360640190fd5b6001600160a01b0381166110b35760405162461bcd60e51b8152600401808060200182810382526026815260200180611f146026913960400191505060405180910390fd5b600a546040516001600160a01b038084169216907f8be0079c531659141344cd1fd0a4f28419497f9722a3daafe3b4186f6b6457e090600090a3600a80546001600160a01b0319166001600160a01b0392909216919091179055565b60006108c46002836115ff565b3390565b600081815260046020526040902080546001600160a01b0319166001600160a01b038416908117909155819061115582610939565b6001600160a01b03167f8c5be1e5ebec7d5bd14f71427d1e84f3dd0314c0f7b2291e5b200ac8c7c3b92560405160405180910390a45050565b80546001019055565b5490565b6001600160a01b0382166111f6576040805162461bcd60e51b815260206004820181905260248201527f4552433732313a206d696e7420746f20746865207a65726f2061646472657373604482015290519081900360640190fd5b6111ff8161110f565b15611251576040805162461bcd60e51b815260206004820152601c60248201527f4552433732313a20746f6b656e20616c7265616479206d696e74656400000000604482015290519081900360640190fd5b61125d6000838361081a565b6001600160a01b038216600090815260016020526040902061127f908261160b565b5061128c60028284611617565b5060405181906001600160a01b038416906000907fddf252ad1be2c89b69c2b068fc378daa952ba7f163c4a11628f55a4df523b3ef908290a45050565b6112d28261110f565b61130d5760405162461bcd60e51b815260040180806020018281038252602c815260200180612089602c913960400191505060405180910390fd5b6000828152600c60209081526040909120825161081a92840190611e2c565b60006108c482611197565b61134861134261111c565b826113cd565b6113835760405162461bcd60e51b815260040180806020018281038252603181526020018061212e6031913960400191505060405180910390fd5b61081a83838361162d565b60006108c18383611779565b60008080806113a986866117dd565b9097909650945050505050565b60006113c3848484611858565b90505b9392505050565b60006113d88261110f565b6114135760405162461bcd60e51b815260040180806020018281038252602c815260200180611f84602c913960400191505060405180910390fd5b600061141e83610939565b9050806001600160a01b0316846001600160a01b031614806114595750836001600160a01b031661144e846106e2565b6001600160a01b0316145b8061146957506114698185610fcc565b949350505050565b61147c84848461162d565b61148884848484611922565b610d435760405162461bcd60e51b8152600401808060200182810382526032815260200180611ee26032913960400191505060405180910390fd5b600d8054604080516020601f60026000196101006001881615020190951694909404938401819004810282018101909252828152606093909290918301828280156106d85780601f106106ad576101008083540402835291602001916106d8565b60608161154957506040805180820190915260018152600360fc1b6020820152610647565b8160005b811561156157600101600a8204915061154d565b60608167ffffffffffffffff8111801561157a57600080fd5b506040519080825280601f01601f1916602001820160405280156115a5576020820181803683370190505b50859350905060001982015b83156115f657600a840660300160f81b828280600190039350815181106115d457fe5b60200101906001600160f81b031916908160001a905350600a840493506115b1565b50949350505050565b60006108c18383611a8a565b60006108c18383611aa2565b60006113c384846001600160a01b038516611aec565b826001600160a01b031661164082610939565b6001600160a01b0316146116855760405162461bcd60e51b81526004018080602001828103825260298152602001806120b56029913960400191505060405180910390fd5b6001600160a01b0382166116ca5760405162461bcd60e51b8152600401808060200182810382526024815260200180611f3a6024913960400191505060405180910390fd5b6116d583838361081a565b6116e0600082611120565b6001600160a01b03831660009081526001602052604090206117029082611b83565b506001600160a01b0382166000908152600160205260409020611725908261160b565b5061173260028284611617565b5080826001600160a01b0316846001600160a01b03167fddf252ad1be2c89b69c2b068fc378daa952ba7f163c4a11628f55a4df523b3ef60405160405180910390a4505050565b815460009082106117bb5760405162461bcd60e51b8152600401808060200182810382526022815260200180611ec06022913960400191505060405180910390fd5b8260000182815481106117ca57fe5b9060005260206000200154905092915050565b8154600090819083106118215760405162461bcd60e51b815260040180806020018281038252602281526020018061203b6022913960400191505060405180910390fd5b600084600001848154811061183257fe5b906000526020600020906002020190508060000154816001015492509250509250929050565b600082815260018401602052604081205482816118f35760405162461bcd60e51b81526004018080602001828103825283818151815260200191508051906020019080838360005b838110156118b85781810151838201526020016118a0565b50505050905090810190601f1680156118e55780820380516001836020036101000a031916815260200191505b509250505060405180910390fd5b5084600001600182038154811061190657fe5b9060005260206000209060020201600101549150509392505050565b6000611936846001600160a01b0316611b8f565b61194257506001611469565b6060611a50630a85bd0160e11b61195761111c565b88878760405160240180856001600160a01b03168152602001846001600160a01b0316815260200183815260200180602001828103825283818151815260200191508051906020019080838360005b838110156119be5781810151838201526020016119a6565b50505050905090810190601f1680156119eb5780820380516001836020036101000a031916815260200191505b5095505050505050604051602081830303815290604052906001600160e01b0319166020820180516001600160e01b038381831617835250505050604051806060016040528060328152602001611ee2603291396001600160a01b0388169190611b95565b90506000818060200190516020811015611a6957600080fd5b50516001600160e01b031916630a85bd0160e11b1492505050949350505050565b60009081526001919091016020526040902054151590565b6000611aae8383611a8a565b611ae4575081546001818101845560008481526020808220909301849055845484825282860190935260409020919091556108c4565b5060006108c4565b600082815260018401602052604081205480611b515750506040805180820182528381526020808201848152865460018181018955600089815284812095516002909302909501918255915190820155865486845281880190925292909120556113c6565b82856000016001830381548110611b6457fe5b90600052602060002090600202016001018190555060009150506113c6565b60006108c18383611ba4565b3b151590565b60606113c38484600085611c6a565b60008181526001830160205260408120548015611c605783546000198083019190810190600090879083908110611bd757fe5b9060005260206000200154905080876000018481548110611bf457fe5b600091825260208083209091019290925582815260018981019092526040902090840190558654879080611c2457fe5b600190038181906000526020600020016000905590558660010160008781526020019081526020016000206000905560019450505050506108c4565b60009150506108c4565b606082471015611cab5760405162461bcd60e51b8152600401808060200182810382526026815260200180611f5e6026913960400191505060405180910390fd5b611cb485611b8f565b611d05576040805162461bcd60e51b815260206004820152601d60248201527f416464726573733a2063616c6c20746f206e6f6e2d636f6e7472616374000000604482015290519081900360640190fd5b60006060866001600160a01b031685876040518082805190602001908083835b60208310611d445780518252601f199092019160209182019101611d25565b6001836020036101000a03801982511681845116808217855250505050505090500191505060006040518083038185875af1925050503d8060008114611da6576040519150601f19603f3d011682016040523d82523d6000602084013e611dab565b606091505b5091509150611dbb828286611dc6565b979650505050505050565b60608315611dd55750816113c6565b825115611de55782518084602001fd5b60405162461bcd60e51b81526020600482018181528451602484015284518593919283926044019190850190808383600083156118b85781810151838201526020016118a0565b828054600181600116156101000203166002900490600052602060002090601f016020900481019282601f10611e6d57805160ff1916838001178555611e9a565b82800160010185558215611e9a579182015b82811115611e9a578251825591602001919060010190611e7f565b50611ea6929150611eaa565b5090565b5b80821115611ea65760008155600101611eab56fe456e756d657261626c655365743a20696e646578206f7574206f6620626f756e64734552433732313a207472616e7366657220746f206e6f6e20455243373231526563656976657220696d706c656d656e7465724f776e61626c653a206e6577206f776e657220697320746865207a65726f20616464726573734552433732313a207472616e7366657220746f20746865207a65726f2061646472657373416464726573733a20696e73756666696369656e742062616c616e636520666f722063616c6c4552433732313a206f70657261746f7220717565727920666f72206e6f6e6578697374656e7420746f6b656e4552433732313a20617070726f76652063616c6c6572206973206e6f74206f776e6572206e6f7220617070726f76656420666f7220616c6c4552433732313a2062616c616e636520717565727920666f7220746865207a65726f20616464726573734552433732313a206f776e657220717565727920666f72206e6f6e6578697374656e7420746f6b656e456e756d657261626c654d61703a20696e646578206f7574206f6620626f756e64734552433732313a20617070726f76656420717565727920666f72206e6f6e6578697374656e7420746f6b656e4552433732314d657461646174613a2055524920736574206f66206e6f6e6578697374656e7420746f6b656e4552433732313a207472616e73666572206f6620746f6b656e2074686174206973206e6f74206f776e4552433732314d657461646174613a2055524920717565727920666f72206e6f6e6578697374656e7420746f6b656e4552433732313a20617070726f76616c20746f2063757272656e74206f776e65724552433732313a207472616e736665722063616c6c6572206973206e6f74206f776e6572206e6f7220617070726f766564a26469706673582212201115fd14b6ff0d6ca542992d6416ee3adc82e87556dcd1ce946b4c876e82d26d64736f6c634300060c003345524332303a206275726e20616d6f756e7420657863656564732062616c616e636545524332303a207472616e7366657220616d6f756e7420657863656564732062616c616e636545524332303a207472616e7366657220616d6f756e74206578636565647320616c6c6f77616e636545524332303a2064656372656173656420616c6c6f77616e63652062656c6f77207a65726fa2646970667358221220a20fc50652b5f388f6a6370944e7fbf1ac103ca2f5af355f19805ed760f4080664736f6c634300060c0033",
  "devdoc": {
    "kind": "dev",
    "methods": {
      "allowance(address,address)": {
        "details": "See {IERC20-allowance}."
      },
      "approve(address,uint256)": {
        "details": "See {IERC20-approve}. Requirements: - `spender` cannot be the zero address."
      },
      "balanceOf(address)": {
        "details": "See {IERC20-balanceOf}."
      },
      "decimals()": {
        "details": "Returns the number of decimals used to get its user representation. For example, if `decimals` equals `2`, a balance of `505` tokens should be displayed to a user as `5,05` (`505 / 10 ** 2`). Tokens usually opt for a value of 18, imitating the relationship between Ether and Wei. This is the value {ERC20} uses, unless {_setupDecimals} is called. NOTE: This information is only used for _display_ purposes: it in no way affects any of the arithmetic of the contract, including {IERC20-balanceOf} and {IERC20-transfer}."
      },
      "decreaseAllowance(address,uint256)": {
        "details": "Atomically decreases the allowance granted to `spender` by the caller. This is an alternative to {approve} that can be used as a mitigation for problems described in {IERC20-approve}. Emits an {Approval} event indicating the updated allowance. Requirements: - `spender` cannot be the zero address. - `spender` must have allowance for the caller of at least `subtractedValue`."
      },
      "increaseAllowance(address,uint256)": {
        "details": "Atomically increases the allowance granted to `spender` by the caller. This is an alternative to {approve} that can be used as a mitigation for problems described in {IERC20-approve}. Emits an {Approval} event indicating the updated allowance. Requirements: - `spender` cannot be the zero address."
      },
      "name()": {
        "details": "Returns the name of the token."
      },
      "owner()": {
        "details": "Returns the address of the current owner."
      },
      "renounceOwnership()": {
        "details": "Leaves the contract without owner. It will not be possible to call `onlyOwner` functions anymore. Can only be called by the current owner. NOTE: Renouncing ownership will leave the contract without an owner, thereby removing any functionality that is only available to the owner."
      },
      "symbol()": {
        "details": "Returns the symbol of the token, usually a shorter version of the name."
      },
      "totalSupply()": {
        "details": "See {IERC20-totalSupply}."
      },
      "transfer(address,uint256)": {
        "details": "See {IERC20-transfer}. Requirements: - `recipient` cannot be the zero address. - the caller must have a balance of at least `amount`."
      },
      "transferFrom(address,address,uint256)": {
        "details": "See {IERC20-transferFrom}. Emits an {Approval} event indicating the updated allowance. This is not required by the EIP. See the note at the beginning of {ERC20}. Requirements: - `sender` and `recipient` cannot be the zero address. - `sender` must have a balance of at least `amount`. - the caller must have allowance for ``sender``'s tokens of at least `amount`."
      },
      "transferOwnership(address)": {
        "details": "Transfers ownership of the contract to a new account (`newOwner`). Can only be called by the current owner."
      }
    },
    "version": 1
  },
  "userdoc": {
    "kind": "user",
    "methods": {},
    "version": 1
  },
  "storageLayout": {
    "storage": [
      {
        "astId": 550,
        "contract": "contracts/ItemRegistry.sol:ItemRegistry",
        "label": "_balances",
        "offset": 0,
        "slot": "0",
        "type": "t_mapping(t_address,t_uint256)"
      },
      {
        "astId": 556,
        "contract": "contracts/ItemRegistry.sol:ItemRegistry",
        "label": "_allowances",
        "offset": 0,
        "slot": "1",
        "type": "t_mapping(t_address,t_mapping(t_address,t_uint256))"
      },
      {
        "astId": 558,
        "contract": "contracts/ItemRegistry.sol:ItemRegistry",
        "label": "_totalSupply",
        "offset": 0,
        "slot": "2",
        "type": "t_uint256"
      },
      {
        "astId": 560,
        "contract": "contracts/ItemRegistry.sol:ItemRegistry",
        "label": "_name",
        "offset": 0,
        "slot": "3",
        "type": "t_string_storage"
      },
      {
        "astId": 562,
        "contract": "contracts/ItemRegistry.sol:ItemRegistry",
        "label": "_symbol",
        "offset": 0,
        "slot": "4",
        "type": "t_string_storage"
      },
      {
        "astId": 564,
        "contract": "contracts/ItemRegistry.sol:ItemRegistry",
        "label": "_decimals",
        "offset": 0,
        "slot": "5",
        "type": "t_uint8"
      },
      {
        "astId": 7,
        "contract": "contracts/ItemRegistry.sol:ItemRegistry",
        "label": "_owner",
        "offset": 1,
        "slot": "5",
        "type": "t_address"
      },
      {
        "astId": 3775,
        "contract": "contracts/ItemRegistry.sol:ItemRegistry",
        "label": "_itemContracts",
        "offset": 0,
        "slot": "6",
        "type": "t_mapping(t_uint256,t_address)"
      },
      {
        "astId": 3779,
        "contract": "contracts/ItemRegistry.sol:ItemRegistry",
        "label": "_itemTypes",
        "offset": 0,
        "slot": "7",
        "type": "t_mapping(t_uint256,t_bytes32)"
      },
      {
        "astId": 3783,
        "contract": "contracts/ItemRegistry.sol:ItemRegistry",
        "label": "_itemSymbols",
        "offset": 0,
        "slot": "8",
        "type": "t_mapping(t_uint256,t_bytes32)"
      },
      {
        "astId": 3787,
        "contract": "contracts/ItemRegistry.sol:ItemRegistry",
        "label": "_itemPrices",
        "offset": 0,
        "slot": "9",
        "type": "t_mapping(t_uint256,t_uint256)"
      },
      {
        "astId": 3791,
        "contract": "contracts/ItemRegistry.sol:ItemRegistry",
        "label": "_itemMetadatas",
        "offset": 0,
        "slot": "10",
        "type": "t_mapping(t_uint256,t_string_storage)"
      },
      {
        "astId": 3795,
        "contract": "contracts/ItemRegistry.sol:ItemRegistry",
        "label": "_itemImages",
        "offset": 0,
        "slot": "11",
        "type": "t_mapping(t_uint256,t_string_storage)"
      },
      {
        "astId": 3797,
        "contract": "contracts/ItemRegistry.sol:ItemRegistry",
        "label": "_itemCounter",
        "offset": 0,
        "slot": "12",
        "type": "t_uint256"
      },
      {
        "astId": 3799,
        "contract": "contracts/ItemRegistry.sol:ItemRegistry",
        "label": "beneficiary",
        "offset": 0,
        "slot": "13",
        "type": "t_address"
      },
      {
        "astId": 3801,
        "contract": "contracts/ItemRegistry.sol:ItemRegistry",
        "label": "_shopRevenue",
        "offset": 0,
        "slot": "14",
        "type": "t_uint256"
      }
    ],
    "types": {
      "t_address": {
        "encoding": "inplace",
        "label": "address",
        "numberOfBytes": "20"
      },
      "t_bytes32": {
        "encoding": "inplace",
        "label": "bytes32",
        "numberOfBytes": "32"
      },
      "t_mapping(t_address,t_mapping(t_address,t_uint256))": {
        "encoding": "mapping",
        "key": "t_address",
        "label": "mapping(address => mapping(address => uint256))",
        "numberOfBytes": "32",
        "value": "t_mapping(t_address,t_uint256)"
      },
      "t_mapping(t_address,t_uint256)": {
        "encoding": "mapping",
        "key": "t_address",
        "label": "mapping(address => uint256)",
        "numberOfBytes": "32",
        "value": "t_uint256"
      },
      "t_mapping(t_uint256,t_address)": {
        "encoding": "mapping",
        "key": "t_uint256",
        "label": "mapping(uint256 => address)",
        "numberOfBytes": "32",
        "value": "t_address"
      },
      "t_mapping(t_uint256,t_bytes32)": {
        "encoding": "mapping",
        "key": "t_uint256",
        "label": "mapping(uint256 => bytes32)",
        "numberOfBytes": "32",
        "value": "t_bytes32"
      },
      "t_mapping(t_uint256,t_string_storage)": {
        "encoding": "mapping",
        "key": "t_uint256",
        "label": "mapping(uint256 => string)",
        "numberOfBytes": "32",
        "value": "t_string_storage"
      },
      "t_mapping(t_uint256,t_uint256)": {
        "encoding": "mapping",
        "key": "t_uint256",
        "label": "mapping(uint256 => uint256)",
        "numberOfBytes": "32",
        "value": "t_uint256"
      },
      "t_string_storage": {
        "encoding": "bytes",
        "label": "string",
        "numberOfBytes": "32"
      },
      "t_uint256": {
        "encoding": "inplace",
        "label": "uint256",
        "numberOfBytes": "32"
      },
      "t_uint8": {
        "encoding": "inplace",
        "label": "uint8",
        "numberOfBytes": "1"
      }
    }
  }
}